{
  "contractName": "Certification",
  "abi": [
    {
      "inputs": [],
      "payable": false,
      "stateMutability": "nonpayable",
      "type": "constructor"
    },
    {
      "anonymous": false,
      "inputs": [
        {
          "indexed": false,
          "internalType": "bytes32",
          "name": "_certificateId",
          "type": "bytes32"
        }
      ],
      "name": "certificateGenerated",
      "type": "event"
    },
    {
      "constant": true,
      "inputs": [
        {
          "internalType": "bytes32",
          "name": "",
          "type": "bytes32"
        }
      ],
      "name": "certificates",
      "outputs": [
        {
          "internalType": "string",
          "name": "USN",
          "type": "string"
        },
        {
          "internalType": "string",
          "name": "candidate_name",
          "type": "string"
        },
        {
          "internalType": "string",
          "name": "Email",
          "type": "string"
        },
        {
          "internalType": "string",
          "name": "father_name",
          "type": "string"
        },
        {
          "internalType": "string",
          "name": "department",
          "type": "string"
        },
        {
          "internalType": "uint256",
          "name": "birth_date",
          "type": "uint256"
        }
      ],
      "payable": false,
      "stateMutability": "view",
      "type": "function"
    },
    {
      "constant": false,
      "inputs": [
        {
          "internalType": "string",
          "name": "_id",
          "type": "string"
        },
        {
          "internalType": "string",
          "name": "_USN",
          "type": "string"
        },
        {
          "internalType": "string",
          "name": "_candidate_name",
          "type": "string"
        },
        {
          "internalType": "string",
          "name": "_Email",
          "type": "string"
        },
        {
          "internalType": "string",
          "name": "_father_name",
          "type": "string"
        },
        {
          "internalType": "string",
          "name": "_department",
          "type": "string"
        },
        {
          "internalType": "uint256[8]",
          "name": "_sgpa",
          "type": "uint256[8]"
        },
        {
          "internalType": "uint256",
          "name": "_birth_date",
          "type": "uint256"
        }
      ],
      "name": "generateCertificate",
      "outputs": [],
      "payable": false,
      "stateMutability": "nonpayable",
      "type": "function"
    },
    {
      "constant": true,
      "inputs": [
        {
          "internalType": "string",
          "name": "_id",
          "type": "string"
        }
      ],
      "name": "getData",
      "outputs": [
        {
          "internalType": "string",
          "name": "",
          "type": "string"
        },
        {
          "internalType": "string",
          "name": "",
          "type": "string"
        },
        {
          "internalType": "string",
          "name": "",
          "type": "string"
        },
        {
          "internalType": "string",
          "name": "",
          "type": "string"
        },
        {
          "internalType": "string",
          "name": "",
          "type": "string"
        },
        {
          "internalType": "uint256[8]",
          "name": "",
          "type": "uint256[8]"
        },
        {
          "internalType": "uint256",
          "name": "_birth_date",
          "type": "uint256"
        }
      ],
      "payable": false,
      "stateMutability": "view",
      "type": "function"
    }
  ],
  "bytecode": "0x608060405234801561001057600080fd5b50611413806100206000396000f3fe608060405234801561001057600080fd5b50600436106100415760003560e01c80634bc2961114610046578063742f068814610441578063ae55c8881461069f575b600080fd5b61043f60048036036101e081101561005d57600080fd5b810190808035906020019064010000000081111561007a57600080fd5b82018360208201111561008c57600080fd5b803590602001918460018302840111640100000000831117156100ae57600080fd5b91908080601f016020809104026020016040519081016040528093929190818152602001838380828437600081840152601f19601f8201169050808301925050505050505091929192908035906020019064010000000081111561011157600080fd5b82018360208201111561012357600080fd5b8035906020019184600183028401116401000000008311171561014557600080fd5b91908080601f016020809104026020016040519081016040528093929190818152602001838380828437600081840152601f19601f820116905080830192505050505050509192919290803590602001906401000000008111156101a857600080fd5b8201836020820111156101ba57600080fd5b803590602001918460018302840111640100000000831117156101dc57600080fd5b91908080601f016020809104026020016040519081016040528093929190818152602001838380828437600081840152601f19601f8201169050808301925050505050505091929192908035906020019064010000000081111561023f57600080fd5b82018360208201111561025157600080fd5b8035906020019184600183028401116401000000008311171561027357600080fd5b91908080601f016020809104026020016040519081016040528093929190818152602001838380828437600081840152601f19601f820116905080830192505050505050509192919290803590602001906401000000008111156102d657600080fd5b8201836020820111156102e857600080fd5b8035906020019184600183028401116401000000008311171561030a57600080fd5b91908080601f016020809104026020016040519081016040528093929190818152602001838380828437600081840152601f19601f8201169050808301925050505050505091929192908035906020019064010000000081111561036d57600080fd5b82018360208201111561037f57600080fd5b803590602001918460018302840111640100000000831117156103a157600080fd5b91908080601f016020809104026020016040519081016040528093929190818152602001838380828437600081840152601f19601f8201169050808301925050505050505091929192908061010001906008806020026040519081016040528092919082600860200280828437600081840152601f19601f8201169050808301925050505050509192919290803590602001909291905050506109b9565b005b61046d6004803603602081101561045757600080fd5b8101908080359060200190929190505050610b03565b60405180806020018060200180602001806020018060200187815260200186810386528c818151815260200191508051906020019080838360005b838110156104c35780820151818401526020810190506104a8565b50505050905090810190601f1680156104f05780820380516001836020036101000a031916815260200191505b5086810385528b818151815260200191508051906020019080838360005b8381101561052957808201518184015260208101905061050e565b50505050905090810190601f1680156105565780820380516001836020036101000a031916815260200191505b5086810384528a818151815260200191508051906020019080838360005b8381101561058f578082015181840152602081019050610574565b50505050905090810190601f1680156105bc5780820380516001836020036101000a031916815260200191505b50868103835289818151815260200191508051906020019080838360005b838110156105f55780820151818401526020810190506105da565b50505050905090810190601f1680156106225780820380516001836020036101000a031916815260200191505b50868103825288818151815260200191508051906020019080838360005b8381101561065b578082015181840152602081019050610640565b50505050905090810190601f1680156106885780820380516001836020036101000a031916815260200191505b509b50505050505050505050505060405180910390f35b610758600480360360208110156106b557600080fd5b81019080803590602001906401000000008111156106d257600080fd5b8201836020820111156106e457600080fd5b8035906020019184600183028401116401000000008311171561070657600080fd5b91908080601f016020809104026020016040519081016040528093929190818152602001838380828437600081840152601f19601f820116905080830192505050505050509192919290505050610e37565b60405180806020018060200180602001806020018060200188600860200280838360005b8381101561079757808201518184015260208101905061077c565b5050505090500187815260200186810386528d818151815260200191508051906020019080838360005b838110156107dc5780820151818401526020810190506107c1565b50505050905090810190601f1680156108095780820380516001836020036101000a031916815260200191505b5086810385528c818151815260200191508051906020019080838360005b83811015610842578082015181840152602081019050610827565b50505050905090810190601f16801561086f5780820380516001836020036101000a031916815260200191505b5086810384528b818151815260200191508051906020019080838360005b838110156108a857808201518184015260208101905061088d565b50505050905090810190601f1680156108d55780820380516001836020036101000a031916815260200191505b5086810383528a818151815260200191508051906020019080838360005b8381101561090e5780820151818401526020810190506108f3565b50505050905090810190601f16801561093b5780820380516001836020036101000a031916815260200191505b50868103825289818151815260200191508051906020019080838360005b83811015610974578082015181840152602081019050610959565b50505050905090810190601f1680156109a15780820380516001836020036101000a031916815260200191505b509c5050505050505050505050505060405180910390f35b60006109c489611245565b90506040518060e00160405280898152602001888152602001878152602001868152602001858152602001848152602001838152506000808381526020019081526020016000206000820151816000019080519060200190610a27929190611270565b506020820151816001019080519060200190610a44929190611270565b506040820151816002019080519060200190610a61929190611270565b506060820151816003019080519060200190610a7e929190611270565b506080820151816004019080519060200190610a9b929190611270565b5060a082015181600501906008610ab39291906112f0565b5060c082015181600d01559050507ff54e0f0055ffae318a21890316ed523f8a60aa59aaa279dfdcae7176155ec0db816040518082815260200191505060405180910390a1505050505050505050565b6000602052806000526040600020600091509050806000018054600181600116156101000203166002900480601f016020809104026020016040519081016040528092919081815260200182805460018160011615610100020316600290048015610baf5780601f10610b8457610100808354040283529160200191610baf565b820191906000526020600020905b815481529060010190602001808311610b9257829003601f168201915b505050505090806001018054600181600116156101000203166002900480601f016020809104026020016040519081016040528092919081815260200182805460018160011615610100020316600290048015610c4d5780601f10610c2257610100808354040283529160200191610c4d565b820191906000526020600020905b815481529060010190602001808311610c3057829003601f168201915b505050505090806002018054600181600116156101000203166002900480601f016020809104026020016040519081016040528092919081815260200182805460018160011615610100020316600290048015610ceb5780601f10610cc057610100808354040283529160200191610ceb565b820191906000526020600020905b815481529060010190602001808311610cce57829003601f168201915b505050505090806003018054600181600116156101000203166002900480601f016020809104026020016040519081016040528092919081815260200182805460018160011615610100020316600290048015610d895780601f10610d5e57610100808354040283529160200191610d89565b820191906000526020600020905b815481529060010190602001808311610d6c57829003601f168201915b505050505090806004018054600181600116156101000203166002900480601f016020809104026020016040519081016040528092919081815260200182805460018160011615610100020316600290048015610e275780601f10610dfc57610100808354040283529160200191610e27565b820191906000526020600020905b815481529060010190602001808311610e0a57829003601f168201915b50505050509080600d0154905086565b6060806060806060610e47611330565b600080610e5389611245565b9050610e5d611353565b6000808381526020019081526020016000206040518060e0016040529081600082018054600181600116156101000203166002900480601f016020809104026020016040519081016040528092919081815260200182805460018160011615610100020316600290048015610f135780601f10610ee857610100808354040283529160200191610f13565b820191906000526020600020905b815481529060010190602001808311610ef657829003601f168201915b50505050508152602001600182018054600181600116156101000203166002900480601f016020809104026020016040519081016040528092919081815260200182805460018160011615610100020316600290048015610fb55780601f10610f8a57610100808354040283529160200191610fb5565b820191906000526020600020905b815481529060010190602001808311610f9857829003601f168201915b50505050508152602001600282018054600181600116156101000203166002900480601f0160208091040260200160405190810160405280929190818152602001828054600181600116156101000203166002900480156110575780601f1061102c57610100808354040283529160200191611057565b820191906000526020600020905b81548152906001019060200180831161103a57829003601f168201915b50505050508152602001600382018054600181600116156101000203166002900480601f0160208091040260200160405190810160405280929190818152602001828054600181600116156101000203166002900480156110f95780601f106110ce576101008083540402835291602001916110f9565b820191906000526020600020905b8154815290600101906020018083116110dc57829003601f168201915b50505050508152602001600482018054600181600116156101000203166002900480601f01602080910402602001604051908101604052809291908181526020018280546001816001161561010002031660029004801561119b5780601f106111705761010080835404028352916020019161119b565b820191906000526020600020905b81548152906001019060200180831161117e57829003601f168201915b50505050508152602001600582016008806020026040519081016040528092919082600880156111e0576020028201915b8154815260200190600101908083116111cc575b50505050508152602001600d820154815250509050806000015181602001518260400151836060015184608001518560a001518660c0015186965085955084945083935082925081915098509850985098509850985098505050919395979092949650565b60006060829050600081511415611262576000801b91505061126b565b60208301519150505b919050565b828054600181600116156101000203166002900490600052602060002090601f016020900481019282601f106112b157805160ff19168380011785556112df565b828001600101855582156112df579182015b828111156112de5782518255916020019190600101906112c3565b5b5090506112ec9190611396565b5090565b826008810192821561131f579160200282015b8281111561131e578251825591602001919060010190611303565b5b50905061132c9190611396565b5090565b604051806101000160405280600890602082028038833980820191505090505090565b6040518060e0016040528060608152602001606081526020016060815260200160608152602001606081526020016113896113bb565b8152602001600081525090565b6113b891905b808211156113b457600081600090555060010161139c565b5090565b90565b60405180610100016040528060089060208202803883398082019150509050509056fea265627a7a723158204b088c4469c07db385bd44cf2548283150d56693a9c76c2883649f3a6f37387064736f6c63430005100032",
  "source": "pragma solidity >=0.5.0;\ncontract Certification {\n    constructor() public {}\n    struct Certificate {\n        string USN;\n        string candidate_name;\n        string Email;\n        string father_name;\n        string department;\n        uint[8] sgpa;\n        uint256 birth_date;\n        }\n    mapping(bytes32 => Certificate) public certificates;\n    event certificateGenerated(bytes32 _certificateId);\n\n    function stringToBytes32(string memory source) private pure returns (bytes32 result) {\n        bytes memory tempEmptyStringTest = bytes(source);\n        if (tempEmptyStringTest.length == 0) {\n            return 0x0;\n        }\n        assembly {\n                result := mload(add(source, 32))\n        } \n    }\n\n    function generateCertificate(\n        string memory _id,\n        string memory _USN,\n        string memory _candidate_name,\n        string memory _Email,\n        string memory _father_name, \n        string memory _department,\n        uint[8] memory _sgpa, \n        uint256 _birth_date) public {\n        bytes32 byte_id = stringToBytes32(_id);\n        certificates[byte_id] = Certificate(_USN,_candidate_name,_Email, _father_name, _department, _sgpa, _birth_date);\n        emit certificateGenerated(byte_id);\n    }\n    function getData(string memory _id) public view returns(string memory,string memory,string memory, string memory, string memory, uint[8] memory,uint256 _birth_date) {\n        bytes32 byte_id = stringToBytes32(_id);\n        Certificate memory temp = certificates[byte_id];\n        \n        return (temp.USN, temp.candidate_name, temp.Email,temp.father_name, temp.department, temp.sgpa, temp.birth_date);\n    }\n}",
  "sourcePath": "F:\\FinalYrPr\\Certification-Verification-Authority\\Blockchain-based-Certificate-Authentication-System\\client\\src\\contracts\\Certification.sol",
  "compiler": {
    "name": "solc",
    "version": "0.5.16+commit.9c3226ce.Emscripten.clang"
  },
  "schemaVersion": "3.4.4",
  "updatedAt": "2022-02-08T08:09:45.876Z",
  "networkType": "ethereum",
  "devdoc": {
    "methods": {}
  },
  "userdoc": {
    "methods": {}
  }
}